{
  "contractName": "TodoList",
  "abi": [
    {
      "inputs": [],
      "stateMutability": "nonpayable",
      "type": "constructor"
    },
    {
      "inputs": [
        {
          "internalType": "uint256",
          "name": "",
          "type": "uint256"
        }
      ],
      "name": "Tasks",
      "outputs": [
        {
          "internalType": "uint256",
          "name": "id",
          "type": "uint256"
        },
        {
          "internalType": "string",
          "name": "content",
          "type": "string"
        },
        {
          "internalType": "bool",
          "name": "completed",
          "type": "bool"
        }
      ],
      "stateMutability": "view",
      "type": "function",
      "constant": true
    },
    {
      "inputs": [],
      "name": "taskCount",
      "outputs": [
        {
          "internalType": "uint256",
          "name": "",
          "type": "uint256"
        }
      ],
      "stateMutability": "view",
      "type": "function",
      "constant": true
    },
    {
      "inputs": [
        {
          "internalType": "string",
          "name": "_content",
          "type": "string"
        }
      ],
      "name": "createTask",
      "outputs": [],
      "stateMutability": "nonpayable",
      "type": "function"
    }
  ],
  "bytecode": "0x60806040526000805534801561001457600080fd5b506100596040518060400160405280601b81526020017f4d617070696e672c2066756e6374696f6e73206c6561726e696e67000000000081525061005e60201b60201c565b61027c565b600080815480929190610070906101d5565b9190505550604051806060016040528060005481526020018281526020016000151581525060016000805481526020019081526020016000206000820151816000015560208201518160010190805190602001906100cf9291906100f6565b5060408201518160020160006101000a81548160ff02191690831515021790555090505050565b828054610102906101a3565b90600052602060002090601f016020900481019282610124576000855561016b565b82601f1061013d57805160ff191683800117855561016b565b8280016001018555821561016b579182015b8281111561016a57825182559160200191906001019061014f565b5b509050610178919061017c565b5090565b5b8082111561019557600081600090555060010161017d565b5090565b6000819050919050565b600060028204905060018216806101bb57607f821691505b602082108114156101cf576101ce61024d565b5b50919050565b60006101e082610199565b91507fffffffffffffffffffffffffffffffffffffffffffffffffffffffffffffffff8214156102135761021261021e565b5b600182019050919050565b7f4e487b7100000000000000000000000000000000000000000000000000000000600052601160045260246000fd5b7f4e487b7100000000000000000000000000000000000000000000000000000000600052602260045260246000fd5b6106d28061028b6000396000f3fe608060405234801561001057600080fd5b50600436106100415760003560e01c8063111002aa14610046578063b6cb58a514610062578063f4b2a46e14610080575b600080fd5b610060600480360381019061005b9190610337565b6100b2565b005b61006a61014a565b6040516100779190610404565b60405180910390f35b61009a60048036038101906100959190610380565b610150565b6040516100a99392919061041f565b60405180910390f35b6000808154809291906100c49061058a565b91905055506040518060600160405280600054815260200182815260200160001515815250600160008054815260200190815260200160002060008201518160000155602082015181600101908051906020019061012392919061020f565b5060408201518160020160006101000a81548160ff02191690831515021790555090505050565b60005481565b600160205280600052604060002060009150905080600001549080600101805461017990610527565b80601f01602080910402602001604051908101604052809291908181526020018280546101a590610527565b80156101f25780601f106101c7576101008083540402835291602001916101f2565b820191906000526020600020905b8154815290600101906020018083116101d557829003601f168201915b5050505050908060020160009054906101000a900460ff16905083565b82805461021b90610527565b90600052602060002090601f01602090048101928261023d5760008555610284565b82601f1061025657805160ff1916838001178555610284565b82800160010185558215610284579182015b82811115610283578251825591602001919060010190610268565b5b5090506102919190610295565b5090565b5b808211156102ae576000816000905550600101610296565b5090565b60006102c56102c084610482565b61045d565b9050828152602081018484840111156102e1576102e0610665565b5b6102ec8482856104e5565b509392505050565b600082601f83011261030957610308610660565b5b81356103198482602086016102b2565b91505092915050565b60008135905061033181610685565b92915050565b60006020828403121561034d5761034c61066f565b5b600082013567ffffffffffffffff81111561036b5761036a61066a565b5b610377848285016102f4565b91505092915050565b6000602082840312156103965761039561066f565b5b60006103a484828501610322565b91505092915050565b6103b6816104cf565b82525050565b60006103c7826104b3565b6103d181856104be565b93506103e18185602086016104f4565b6103ea81610674565b840191505092915050565b6103fe816104db565b82525050565b600060208201905061041960008301846103f5565b92915050565b600060608201905061043460008301866103f5565b818103602083015261044681856103bc565b905061045560408301846103ad565b949350505050565b6000610467610478565b90506104738282610559565b919050565b6000604051905090565b600067ffffffffffffffff82111561049d5761049c610631565b5b6104a682610674565b9050602081019050919050565b600081519050919050565b600082825260208201905092915050565b60008115159050919050565b6000819050919050565b82818337600083830152505050565b60005b838110156105125780820151818401526020810190506104f7565b83811115610521576000848401525b50505050565b6000600282049050600182168061053f57607f821691505b6020821081141561055357610552610602565b5b50919050565b61056282610674565b810181811067ffffffffffffffff8211171561058157610580610631565b5b80604052505050565b6000610595826104db565b91507fffffffffffffffffffffffffffffffffffffffffffffffffffffffffffffffff8214156105c8576105c76105d3565b5b600182019050919050565b7f4e487b7100000000000000000000000000000000000000000000000000000000600052601160045260246000fd5b7f4e487b7100000000000000000000000000000000000000000000000000000000600052602260045260246000fd5b7f4e487b7100000000000000000000000000000000000000000000000000000000600052604160045260246000fd5b600080fd5b600080fd5b600080fd5b600080fd5b6000601f19601f8301169050919050565b61068e816104db565b811461069957600080fd5b5056fea264697066735822122090f500f7bb6ed68de9fc7f3599a1db936acbd65ebc1691183346f94db3e3845064736f6c63430008070033",
  "immutableReferences": {},
  "source": "// SPDX-License-Identifier: MIT\r\npragma solidity ^0.8.7;\r\n\r\ncontract TodoList {\r\n    uint256 public taskCount = 0;\r\n\r\n    struct Task {\r\n        uint256 id;\r\n        string content;\r\n        bool completed;\r\n    }\r\n\r\n    constructor() {\r\n        createTask(\"Mapping, functions learning\");\r\n    }\r\n\r\n    mapping(uint256 => Task) public Tasks;\r\n\r\n    function createTask(string memory _content) public {\r\n        taskCount++;\r\n        Tasks[taskCount] = Task(taskCount, _content, false);\r\n    }\r\n}\r\n",
  "sourcePath": "C:\\Users\\Shiva shankar\\Desktop\\Important Code folder\\BLOCKCHAIN\\eth-todo-list\\contracts\\TodoList.sol",
  "compiler": {
    "name": "solc",
    "version": "0.8.7+commit.e28d00a7.Emscripten.clang"
  },
  "schemaVersion": "3.4.3",
  "updatedAt": "2021-10-06T19:59:26.503Z",
  "networkType": "ethereum",
  "devdoc": {
    "kind": "dev",
    "methods": {},
    "version": 1
  },
  "userdoc": {
    "kind": "user",
    "methods": {},
    "version": 1
  }
}